{
  "_format": "hh-sol-artifact-1",
  "contractName": "MyToken",
  "sourceName": "contracts/MyToken.sol",
  "abi": [
    {
      "anonymous": false,
      "inputs": [
        {
          "indexed": true,
          "internalType": "address",
          "name": "owner",
          "type": "address"
        },
        {
          "indexed": true,
          "internalType": "address",
          "name": "spender",
          "type": "address"
        },
        {
          "indexed": false,
          "internalType": "uint256",
          "name": "value",
          "type": "uint256"
        }
      ],
      "name": "Approval",
      "type": "event"
    },
    {
      "anonymous": false,
      "inputs": [
        {
          "indexed": true,
          "internalType": "address",
          "name": "sender",
          "type": "address"
        },
        {
          "indexed": false,
          "internalType": "uint256",
          "name": "tokenAmount",
          "type": "uint256"
        },
        {
          "indexed": false,
          "internalType": "uint256",
          "name": "price",
          "type": "uint256"
        }
      ],
      "name": "BuyToken",
      "type": "event"
    },
    {
      "anonymous": false,
      "inputs": [
        {
          "indexed": false,
          "internalType": "uint8",
          "name": "version",
          "type": "uint8"
        }
      ],
      "name": "Initialized",
      "type": "event"
    },
    {
      "anonymous": false,
      "inputs": [
        {
          "indexed": true,
          "internalType": "address",
          "name": "from",
          "type": "address"
        },
        {
          "indexed": true,
          "internalType": "address",
          "name": "to",
          "type": "address"
        },
        {
          "indexed": false,
          "internalType": "uint256",
          "name": "value",
          "type": "uint256"
        }
      ],
      "name": "Transfer",
      "type": "event"
    },
    {
      "inputs": [],
      "name": "_address",
      "outputs": [
        {
          "internalType": "address",
          "name": "",
          "type": "address"
        }
      ],
      "stateMutability": "view",
      "type": "function"
    },
    {
      "inputs": [],
      "name": "_tokenPrice",
      "outputs": [
        {
          "internalType": "uint256",
          "name": "",
          "type": "uint256"
        }
      ],
      "stateMutability": "view",
      "type": "function"
    },
    {
      "inputs": [
        {
          "internalType": "address",
          "name": "owner",
          "type": "address"
        },
        {
          "internalType": "address",
          "name": "spender",
          "type": "address"
        }
      ],
      "name": "allowance",
      "outputs": [
        {
          "internalType": "uint256",
          "name": "",
          "type": "uint256"
        }
      ],
      "stateMutability": "view",
      "type": "function"
    },
    {
      "inputs": [
        {
          "internalType": "address",
          "name": "spender",
          "type": "address"
        },
        {
          "internalType": "uint256",
          "name": "amount",
          "type": "uint256"
        }
      ],
      "name": "approve",
      "outputs": [
        {
          "internalType": "bool",
          "name": "",
          "type": "bool"
        }
      ],
      "stateMutability": "nonpayable",
      "type": "function"
    },
    {
      "inputs": [
        {
          "internalType": "address",
          "name": "account",
          "type": "address"
        }
      ],
      "name": "balanceOf",
      "outputs": [
        {
          "internalType": "uint256",
          "name": "",
          "type": "uint256"
        }
      ],
      "stateMutability": "view",
      "type": "function"
    },
    {
      "inputs": [],
      "name": "buyToken",
      "outputs": [],
      "stateMutability": "payable",
      "type": "function"
    },
    {
      "inputs": [],
      "name": "decimals",
      "outputs": [
        {
          "internalType": "uint8",
          "name": "",
          "type": "uint8"
        }
      ],
      "stateMutability": "view",
      "type": "function"
    },
    {
      "inputs": [
        {
          "internalType": "address",
          "name": "spender",
          "type": "address"
        },
        {
          "internalType": "uint256",
          "name": "subtractedValue",
          "type": "uint256"
        }
      ],
      "name": "decreaseAllowance",
      "outputs": [
        {
          "internalType": "bool",
          "name": "",
          "type": "bool"
        }
      ],
      "stateMutability": "nonpayable",
      "type": "function"
    },
    {
      "inputs": [
        {
          "internalType": "address",
          "name": "spender",
          "type": "address"
        },
        {
          "internalType": "uint256",
          "name": "addedValue",
          "type": "uint256"
        }
      ],
      "name": "increaseAllowance",
      "outputs": [
        {
          "internalType": "bool",
          "name": "",
          "type": "bool"
        }
      ],
      "stateMutability": "nonpayable",
      "type": "function"
    },
    {
      "inputs": [],
      "name": "initialize",
      "outputs": [],
      "stateMutability": "nonpayable",
      "type": "function"
    },
    {
      "inputs": [],
      "name": "name",
      "outputs": [
        {
          "internalType": "string",
          "name": "",
          "type": "string"
        }
      ],
      "stateMutability": "view",
      "type": "function"
    },
    {
      "inputs": [
        {
          "internalType": "address",
          "name": "_who",
          "type": "address"
        }
      ],
      "name": "owhBalanceOf",
      "outputs": [
        {
          "internalType": "uint256",
          "name": "",
          "type": "uint256"
        }
      ],
      "stateMutability": "view",
      "type": "function"
    },
    {
      "inputs": [],
      "name": "symbol",
      "outputs": [
        {
          "internalType": "string",
          "name": "",
          "type": "string"
        }
      ],
      "stateMutability": "view",
      "type": "function"
    },
    {
      "inputs": [],
      "name": "tokenPrice",
      "outputs": [
        {
          "internalType": "uint256",
          "name": "",
          "type": "uint256"
        }
      ],
      "stateMutability": "view",
      "type": "function"
    },
    {
      "inputs": [],
      "name": "totalSupply",
      "outputs": [
        {
          "internalType": "uint256",
          "name": "",
          "type": "uint256"
        }
      ],
      "stateMutability": "view",
      "type": "function"
    },
    {
      "inputs": [
        {
          "internalType": "address",
          "name": "to",
          "type": "address"
        },
        {
          "internalType": "uint256",
          "name": "amount",
          "type": "uint256"
        }
      ],
      "name": "transfer",
      "outputs": [
        {
          "internalType": "bool",
          "name": "",
          "type": "bool"
        }
      ],
      "stateMutability": "nonpayable",
      "type": "function"
    },
    {
      "inputs": [
        {
          "internalType": "address",
          "name": "from",
          "type": "address"
        },
        {
          "internalType": "address",
          "name": "to",
          "type": "address"
        },
        {
          "internalType": "uint256",
          "name": "amount",
          "type": "uint256"
        }
      ],
      "name": "transferFrom",
      "outputs": [
        {
          "internalType": "bool",
          "name": "",
          "type": "bool"
        }
      ],
      "stateMutability": "nonpayable",
      "type": "function"
    }
  ],
  "bytecode": "0x608060405265065dd083700060655573a4465b289842fb8fa856b28236825220202fde68606660006101000a81548173ffffffffffffffffffffffffffffffffffffffff021916908373ffffffffffffffffffffffffffffffffffffffff16021790555034801561006f57600080fd5b50611c548061007f6000396000f3fe6080604052600436106100fe5760003560e01c80633b971f9f1161009557806395d89b411161006457806395d89b411461034d578063a457c2d714610378578063a4821719146103b5578063a9059cbb146103bf578063dd62ed3e146103fc576100fe565b80633b971f9f146102a357806370a08231146102ce5780637ff9b5961461030b5780638129fc1c14610336576100fe565b806318bad217116100d157806318bad217146101d357806323b872dd146101fe578063313ce5671461023b5780633950935114610266576100fe565b806306fdde0314610103578063095ea7b31461012e5780630ebd79d61461016b57806318160ddd146101a8575b600080fd5b34801561010f57600080fd5b50610118610439565b604051610125919061126b565b60405180910390f35b34801561013a57600080fd5b5061015560048036038101906101509190611326565b6104cb565b6040516101629190611381565b60405180910390f35b34801561017757600080fd5b50610192600480360381019061018d919061139c565b6104ee565b60405161019f91906113d8565b60405180910390f35b3480156101b457600080fd5b506101bd610500565b6040516101ca91906113d8565b60405180910390f35b3480156101df57600080fd5b506101e861050a565b6040516101f59190611402565b60405180910390f35b34801561020a57600080fd5b506102256004803603810190610220919061141d565b610530565b6040516102329190611381565b60405180910390f35b34801561024757600080fd5b5061025061055f565b60405161025d919061148c565b60405180910390f35b34801561027257600080fd5b5061028d60048036038101906102889190611326565b610568565b60405161029a9190611381565b60405180910390f35b3480156102af57600080fd5b506102b861059f565b6040516102c591906113d8565b60405180910390f35b3480156102da57600080fd5b506102f560048036038101906102f0919061139c565b6105a5565b60405161030291906113d8565b60405180910390f35b34801561031757600080fd5b506103206105ee565b60405161032d91906113d8565b60405180910390f35b34801561034257600080fd5b5061034b6105f8565b005b34801561035957600080fd5b506103626107ad565b60405161036f919061126b565b60405180910390f35b34801561038457600080fd5b5061039f600480360381019061039a9190611326565b61083f565b6040516103ac9190611381565b60405180910390f35b6103bd6108b6565b005b3480156103cb57600080fd5b506103e660048036038101906103e19190611326565b610936565b6040516103f39190611381565b60405180910390f35b34801561040857600080fd5b50610423600480360381019061041e91906114a7565b610959565b60405161043091906113d8565b60405180910390f35b60606036805461044890611516565b80601f016020809104026020016040519081016040528092919081815260200182805461047490611516565b80156104c15780601f10610496576101008083540402835291602001916104c1565b820191906000526020600020905b8154815290600101906020018083116104a457829003601f168201915b5050505050905090565b6000806104d66109e0565b90506104e38185856109e8565b600191505092915050565b60006104f9826105a5565b9050919050565b6000603554905090565b606660009054906101000a900473ffffffffffffffffffffffffffffffffffffffff1681565b60008061053b6109e0565b9050610548858285610bb3565b610553858585610c3f565b60019150509392505050565b60006012905090565b6000806105736109e0565b90506105948185856105858589610959565b61058f9190611577565b6109e8565b600191505092915050565b60655481565b6000603360008373ffffffffffffffffffffffffffffffffffffffff1673ffffffffffffffffffffffffffffffffffffffff168152602001908152602001600020549050919050565b6000606554905090565b60008060019054906101000a900460ff161590508080156106295750600160008054906101000a900460ff1660ff16105b80610656575061063830610ec3565b1580156106555750600160008054906101000a900460ff1660ff16145b5b610695576040517f08c379a000000000000000000000000000000000000000000000000000000000815260040161068c9061163f565b60405180910390fd5b60016000806101000a81548160ff021916908360ff16021790555080156106d2576001600060016101000a81548160ff0219169083151502179055505b6107466040518060400160405280600281526020017f4d790000000000000000000000000000000000000000000000000000000000008152506040518060400160405280600281526020017f4d59000000000000000000000000000000000000000000000000000000000000815250610ee6565b61075133600f610f43565b80156107aa5760008060016101000a81548160ff0219169083151502179055507f7f26b83ff96e1f2b6a682f133852f6798a09c465da95921460cefb384740249860016040516107a191906116a4565b60405180910390a15b50565b6060603780546107bc90611516565b80601f01602080910402602001604051908101604052809291908181526020018280546107e890611516565b80156108355780601f1061080a57610100808354040283529160200191610835565b820191906000526020600020905b81548152906001019060200180831161081857829003601f168201915b5050505050905090565b60008061084a6109e0565b905060006108588286610959565b90508381101561089d576040517f08c379a000000000000000000000000000000000000000000000000000000000815260040161089490611731565b60405180910390fd5b6108aa82868684036109e8565b60019250505092915050565b6065543410156108c557600080fd5b6000606554346108d59190611780565b90506108e13382610f43565b3373ffffffffffffffffffffffffffffffffffffffff167ff6f342132c7de5e5a1e99c8efae544c94731f3ff093f5c3c97c6973d9415cdfb8260655460405161092b9291906117b1565b60405180910390a250565b6000806109416109e0565b905061094e818585610c3f565b600191505092915050565b6000603460008473ffffffffffffffffffffffffffffffffffffffff1673ffffffffffffffffffffffffffffffffffffffff16815260200190815260200160002060008373ffffffffffffffffffffffffffffffffffffffff1673ffffffffffffffffffffffffffffffffffffffff16815260200190815260200160002054905092915050565b600033905090565b600073ffffffffffffffffffffffffffffffffffffffff168373ffffffffffffffffffffffffffffffffffffffff161415610a58576040517f08c379a0000000000000000000000000000000000000000000000000000000008152600401610a4f9061184c565b60405180910390fd5b600073ffffffffffffffffffffffffffffffffffffffff168273ffffffffffffffffffffffffffffffffffffffff161415610ac8576040517f08c379a0000000000000000000000000000000000000000000000000000000008152600401610abf906118de565b60405180910390fd5b80603460008573ffffffffffffffffffffffffffffffffffffffff1673ffffffffffffffffffffffffffffffffffffffff16815260200190815260200160002060008473ffffffffffffffffffffffffffffffffffffffff1673ffffffffffffffffffffffffffffffffffffffff168152602001908152602001600020819055508173ffffffffffffffffffffffffffffffffffffffff168373ffffffffffffffffffffffffffffffffffffffff167f8c5be1e5ebec7d5bd14f71427d1e84f3dd0314c0f7b2291e5b200ac8c7c3b92583604051610ba691906113d8565b60405180910390a3505050565b6000610bbf8484610959565b90507fffffffffffffffffffffffffffffffffffffffffffffffffffffffffffffffff8114610c395781811015610c2b576040517f08c379a0000000000000000000000000000000000000000000000000000000008152600401610c229061194a565b60405180910390fd5b610c3884848484036109e8565b5b50505050565b600073ffffffffffffffffffffffffffffffffffffffff168373ffffffffffffffffffffffffffffffffffffffff161415610caf576040517f08c379a0000000000000000000000000000000000000000000000000000000008152600401610ca6906119dc565b60405180910390fd5b600073ffffffffffffffffffffffffffffffffffffffff168273ffffffffffffffffffffffffffffffffffffffff161415610d1f576040517f08c379a0000000000000000000000000000000000000000000000000000000008152600401610d1690611a6e565b60405180910390fd5b610d2a8383836110a4565b6000603360008573ffffffffffffffffffffffffffffffffffffffff1673ffffffffffffffffffffffffffffffffffffffff16815260200190815260200160002054905081811015610db1576040517f08c379a0000000000000000000000000000000000000000000000000000000008152600401610da890611b00565b60405180910390fd5b818103603360008673ffffffffffffffffffffffffffffffffffffffff1673ffffffffffffffffffffffffffffffffffffffff1681526020019081526020016000208190555081603360008573ffffffffffffffffffffffffffffffffffffffff1673ffffffffffffffffffffffffffffffffffffffff1681526020019081526020016000206000828254610e469190611577565b925050819055508273ffffffffffffffffffffffffffffffffffffffff168473ffffffffffffffffffffffffffffffffffffffff167fddf252ad1be2c89b69c2b068fc378daa952ba7f163c4a11628f55a4df523b3ef84604051610eaa91906113d8565b60405180910390a3610ebd8484846110a9565b50505050565b6000808273ffffffffffffffffffffffffffffffffffffffff163b119050919050565b600060019054906101000a900460ff16610f35576040517f08c379a0000000000000000000000000000000000000000000000000000000008152600401610f2c90611b92565b60405180910390fd5b610f3f82826110ae565b5050565b600073ffffffffffffffffffffffffffffffffffffffff168273ffffffffffffffffffffffffffffffffffffffff161415610fb3576040517f08c379a0000000000000000000000000000000000000000000000000000000008152600401610faa90611bfe565b60405180910390fd5b610fbf600083836110a4565b8060356000828254610fd19190611577565b9250508190555080603360008473ffffffffffffffffffffffffffffffffffffffff1673ffffffffffffffffffffffffffffffffffffffff16815260200190815260200160002060008282546110279190611577565b925050819055508173ffffffffffffffffffffffffffffffffffffffff16600073ffffffffffffffffffffffffffffffffffffffff167fddf252ad1be2c89b69c2b068fc378daa952ba7f163c4a11628f55a4df523b3ef8360405161108c91906113d8565b60405180910390a36110a0600083836110a9565b5050565b505050565b505050565b600060019054906101000a900460ff166110fd576040517f08c379a00000000000000000000000000000000000000000000000000000000081526004016110f490611b92565b60405180910390fd5b816036908051906020019061111392919061112f565b50806037908051906020019061112a92919061112f565b505050565b82805461113b90611516565b90600052602060002090601f01602090048101928261115d57600085556111a4565b82601f1061117657805160ff19168380011785556111a4565b828001600101855582156111a4579182015b828111156111a3578251825591602001919060010190611188565b5b5090506111b191906111b5565b5090565b5b808211156111ce5760008160009055506001016111b6565b5090565b600081519050919050565b600082825260208201905092915050565b60005b8381101561120c5780820151818401526020810190506111f1565b8381111561121b576000848401525b50505050565b6000601f19601f8301169050919050565b600061123d826111d2565b61124781856111dd565b93506112578185602086016111ee565b61126081611221565b840191505092915050565b600060208201905081810360008301526112858184611232565b905092915050565b600080fd5b600073ffffffffffffffffffffffffffffffffffffffff82169050919050565b60006112bd82611292565b9050919050565b6112cd816112b2565b81146112d857600080fd5b50565b6000813590506112ea816112c4565b92915050565b6000819050919050565b611303816112f0565b811461130e57600080fd5b50565b600081359050611320816112fa565b92915050565b6000806040838503121561133d5761133c61128d565b5b600061134b858286016112db565b925050602061135c85828601611311565b9150509250929050565b60008115159050919050565b61137b81611366565b82525050565b60006020820190506113966000830184611372565b92915050565b6000602082840312156113b2576113b161128d565b5b60006113c0848285016112db565b91505092915050565b6113d2816112f0565b82525050565b60006020820190506113ed60008301846113c9565b92915050565b6113fc816112b2565b82525050565b600060208201905061141760008301846113f3565b92915050565b6000806000606084860312156114365761143561128d565b5b6000611444868287016112db565b9350506020611455868287016112db565b925050604061146686828701611311565b9150509250925092565b600060ff82169050919050565b61148681611470565b82525050565b60006020820190506114a1600083018461147d565b92915050565b600080604083850312156114be576114bd61128d565b5b60006114cc858286016112db565b92505060206114dd858286016112db565b9150509250929050565b7f4e487b7100000000000000000000000000000000000000000000000000000000600052602260045260246000fd5b6000600282049050600182168061152e57607f821691505b60208210811415611542576115416114e7565b5b50919050565b7f4e487b7100000000000000000000000000000000000000000000000000000000600052601160045260246000fd5b6000611582826112f0565b915061158d836112f0565b9250827fffffffffffffffffffffffffffffffffffffffffffffffffffffffffffffffff038211156115c2576115c1611548565b5b828201905092915050565b7f496e697469616c697a61626c653a20636f6e747261637420697320616c72656160008201527f647920696e697469616c697a6564000000000000000000000000000000000000602082015250565b6000611629602e836111dd565b9150611634826115cd565b604082019050919050565b600060208201905081810360008301526116588161161c565b9050919050565b6000819050919050565b6000819050919050565b600061168e6116896116848461165f565b611669565b611470565b9050919050565b61169e81611673565b82525050565b60006020820190506116b96000830184611695565b92915050565b7f45524332303a2064656372656173656420616c6c6f77616e63652062656c6f7760008201527f207a65726f000000000000000000000000000000000000000000000000000000602082015250565b600061171b6025836111dd565b9150611726826116bf565b604082019050919050565b6000602082019050818103600083015261174a8161170e565b9050919050565b7f4e487b7100000000000000000000000000000000000000000000000000000000600052601260045260246000fd5b600061178b826112f0565b9150611796836112f0565b9250826117a6576117a5611751565b5b828204905092915050565b60006040820190506117c660008301856113c9565b6117d360208301846113c9565b9392505050565b7f45524332303a20617070726f76652066726f6d20746865207a65726f2061646460008201527f7265737300000000000000000000000000000000000000000000000000000000602082015250565b60006118366024836111dd565b9150611841826117da565b604082019050919050565b6000602082019050818103600083015261186581611829565b9050919050565b7f45524332303a20617070726f766520746f20746865207a65726f20616464726560008201527f7373000000000000000000000000000000000000000000000000000000000000602082015250565b60006118c86022836111dd565b91506118d38261186c565b604082019050919050565b600060208201905081810360008301526118f7816118bb565b9050919050565b7f45524332303a20696e73756666696369656e7420616c6c6f77616e6365000000600082015250565b6000611934601d836111dd565b915061193f826118fe565b602082019050919050565b6000602082019050818103600083015261196381611927565b9050919050565b7f45524332303a207472616e736665722066726f6d20746865207a65726f20616460008201527f6472657373000000000000000000000000000000000000000000000000000000602082015250565b60006119c66025836111dd565b91506119d18261196a565b604082019050919050565b600060208201905081810360008301526119f5816119b9565b9050919050565b7f45524332303a207472616e7366657220746f20746865207a65726f206164647260008201527f6573730000000000000000000000000000000000000000000000000000000000602082015250565b6000611a586023836111dd565b9150611a63826119fc565b604082019050919050565b60006020820190508181036000830152611a8781611a4b565b9050919050565b7f45524332303a207472616e7366657220616d6f756e742065786365656473206260008201527f616c616e63650000000000000000000000000000000000000000000000000000602082015250565b6000611aea6026836111dd565b9150611af582611a8e565b604082019050919050565b60006020820190508181036000830152611b1981611add565b9050919050565b7f496e697469616c697a61626c653a20636f6e7472616374206973206e6f74206960008201527f6e697469616c697a696e67000000000000000000000000000000000000000000602082015250565b6000611b7c602b836111dd565b9150611b8782611b20565b604082019050919050565b60006020820190508181036000830152611bab81611b6f565b9050919050565b7f45524332303a206d696e7420746f20746865207a65726f206164647265737300600082015250565b6000611be8601f836111dd565b9150611bf382611bb2565b602082019050919050565b60006020820190508181036000830152611c1781611bdb565b905091905056fea2646970667358221220da66701bed338bd5696d34a4c95ac14286621230ad608e4a61bf861fddebb3af64736f6c63430008090033",
  "linkReferences": {},
  "deployedLinkReferences": {}
}